{
  "contractName": "Auction",
  "abi": [
    {
      "anonymous": false,
      "inputs": [
        {
          "indexed": false,
          "internalType": "address",
          "name": "admin",
          "type": "address"
        }
      ],
      "name": "newAdmin",
      "type": "event"
    },
    {
      "anonymous": false,
      "inputs": [
        {
          "indexed": false,
          "internalType": "uint256",
          "name": "price",
          "type": "uint256"
        }
      ],
      "name": "newBid",
      "type": "event"
    },
    {
      "anonymous": false,
      "inputs": [
        {
          "indexed": false,
          "internalType": "address",
          "name": "bidder",
          "type": "address"
        }
      ],
      "name": "newBidder",
      "type": "event"
    },
    {
      "anonymous": false,
      "inputs": [
        {
          "indexed": false,
          "internalType": "address",
          "name": "seller",
          "type": "address"
        }
      ],
      "name": "newSale",
      "type": "event"
    },
    {
      "anonymous": false,
      "inputs": [
        {
          "indexed": false,
          "internalType": "address",
          "name": "sender",
          "type": "address"
        }
      ],
      "name": "newSender",
      "type": "event"
    },
    {
      "inputs": [],
      "name": "CurrentState",
      "outputs": [
        {
          "internalType": "enum Auction.State",
          "name": "",
          "type": "uint8"
        }
      ],
      "stateMutability": "view",
      "type": "function",
      "constant": true
    },
    {
      "inputs": [
        {
          "internalType": "address",
          "name": "_user",
          "type": "address"
        }
      ],
      "name": "registerAdmin",
      "outputs": [],
      "stateMutability": "nonpayable",
      "type": "function"
    },
    {
      "inputs": [
        {
          "internalType": "address",
          "name": "_user",
          "type": "address"
        }
      ],
      "name": "registerBidder",
      "outputs": [],
      "stateMutability": "nonpayable",
      "type": "function"
    },
    {
      "inputs": [],
      "name": "startAuction",
      "outputs": [
        {
          "internalType": "enum Auction.State",
          "name": "",
          "type": "uint8"
        }
      ],
      "stateMutability": "nonpayable",
      "type": "function"
    },
    {
      "inputs": [],
      "name": "endAuction",
      "outputs": [
        {
          "internalType": "enum Auction.State",
          "name": "",
          "type": "uint8"
        }
      ],
      "stateMutability": "nonpayable",
      "type": "function"
    },
    {
      "inputs": [],
      "name": "sellerWithdrawCredits",
      "outputs": [],
      "stateMutability": "nonpayable",
      "type": "function"
    },
    {
      "inputs": [],
      "name": "buyerWithdrawCredits",
      "outputs": [],
      "stateMutability": "nonpayable",
      "type": "function"
    },
    {
      "inputs": [
        {
          "internalType": "string",
          "name": "_name",
          "type": "string"
        },
        {
          "internalType": "string",
          "name": "_description",
          "type": "string"
        },
        {
          "internalType": "string",
          "name": "_image",
          "type": "string"
        },
        {
          "internalType": "uint256",
          "name": "_amount",
          "type": "uint256"
        }
      ],
      "name": "proposeSale",
      "outputs": [],
      "stateMutability": "nonpayable",
      "type": "function"
    },
    {
      "inputs": [],
      "name": "viewPendingSales",
      "outputs": [
        {
          "components": [
            {
              "internalType": "address",
              "name": "sellerAdress",
              "type": "address"
            },
            {
              "internalType": "string",
              "name": "name",
              "type": "string"
            },
            {
              "internalType": "string",
              "name": "description",
              "type": "string"
            },
            {
              "internalType": "string",
              "name": "image",
              "type": "string"
            },
            {
              "internalType": "uint256",
              "name": "price",
              "type": "uint256"
            }
          ],
          "internalType": "struct Auction.Sale[]",
          "name": "",
          "type": "tuple[]"
        }
      ],
      "stateMutability": "view",
      "type": "function",
      "constant": true
    },
    {
      "inputs": [],
      "name": "viewRegisteredSale",
      "outputs": [
        {
          "components": [
            {
              "internalType": "address",
              "name": "sellerAdress",
              "type": "address"
            },
            {
              "internalType": "string",
              "name": "name",
              "type": "string"
            },
            {
              "internalType": "string",
              "name": "description",
              "type": "string"
            },
            {
              "internalType": "string",
              "name": "image",
              "type": "string"
            },
            {
              "internalType": "uint256",
              "name": "price",
              "type": "uint256"
            }
          ],
          "internalType": "struct Auction.Sale",
          "name": "",
          "type": "tuple"
        }
      ],
      "stateMutability": "view",
      "type": "function",
      "constant": true
    },
    {
      "inputs": [
        {
          "internalType": "address",
          "name": "_sellerAdress",
          "type": "address"
        }
      ],
      "name": "acceptSale",
      "outputs": [],
      "stateMutability": "nonpayable",
      "type": "function"
    },
    {
      "inputs": [],
      "name": "bid",
      "outputs": [],
      "stateMutability": "payable",
      "type": "function",
      "payable": true
    },
    {
      "inputs": [],
      "name": "viewYourBid",
      "outputs": [
        {
          "internalType": "uint256",
          "name": "",
          "type": "uint256"
        }
      ],
      "stateMutability": "view",
      "type": "function",
      "constant": true
    },
    {
      "inputs": [],
      "name": "viewBestBid",
      "outputs": [
        {
          "internalType": "uint256",
          "name": "",
          "type": "uint256"
        }
      ],
      "stateMutability": "view",
      "type": "function",
      "constant": true
    },
    {
      "inputs": [],
      "name": "viewResults",
      "outputs": [
        {
          "components": [
            {
              "internalType": "address",
              "name": "topBidder",
              "type": "address"
            },
            {
              "internalType": "uint256",
              "name": "topBid",
              "type": "uint256"
            }
          ],
          "internalType": "struct Auction.AuctionWinner",
          "name": "",
          "type": "tuple"
        }
      ],
      "stateMutability": "view",
      "type": "function",
      "constant": true
    },
    {
      "inputs": [],
      "name": "showCurrentState",
      "outputs": [
        {
          "internalType": "enum Auction.State",
          "name": "",
          "type": "uint8"
        }
      ],
      "stateMutability": "view",
      "type": "function",
      "constant": true
    }
  ],
  "bytecode": "0x60806040526000600160006101000a81548160ff021916908360028111156200002d576200002c62000046565b5b02179055503480156200003f57600080fd5b5062000075565b7f4e487b7100000000000000000000000000000000000000000000000000000000600052602160045260246000fd5b612f7380620000856000396000f3fe6080604052600436106100f35760003560e01c8063920d2a3f1161008a578063d55ab09511610059578063d55ab095146102bf578063d670de70146102ea578063d7ad1b6f14610301578063fe67a54b1461032c576100f3565b8063920d2a3f14610229578063b7c0317014610254578063c20ea7b71461027f578063c38c581314610296576100f3565b80632d769842116100c65780632d7698421461017f57806352a9cb65146101aa57806356f17082146101d55780636b64c769146101fe576100f3565b806304e544cf146100f857806311fab6fc146101235780631998aeef1461014c5780631af40b1214610156575b600080fd5b34801561010457600080fd5b5061010d610357565b60405161011a919061259a565b60405180910390f35b34801561012f57600080fd5b5061014a6004803603810190610145919061206a565b61036e565b005b61015461059a565b005b34801561016257600080fd5b5061017d60048036038101906101789190612097565b610855565b005b34801561018b57600080fd5b50610194610c30565b6040516101a19190612792565b60405180910390f35b3480156101b657600080fd5b506101bf610d7d565b6040516101cc9190612770565b60405180910390f35b3480156101e157600080fd5b506101fc60048036038101906101f7919061206a565b61103c565b005b34801561020a57600080fd5b50610213611164565b604051610220919061259a565b60405180910390f35b34801561023557600080fd5b5061023e6112ae565b60405161024b9190612792565b60405180910390f35b34801561026057600080fd5b506102696113c1565b604051610276919061259a565b60405180910390f35b34801561028b57600080fd5b506102946113d4565b005b3480156102a257600080fd5b506102bd60048036038101906102b8919061206a565b611537565b005b3480156102cb57600080fd5b506102d46115c9565b6040516102e19190612755565b60405180910390f35b3480156102f657600080fd5b506102ff611747565b005b34801561030d57600080fd5b5061031661194a565b6040516103239190612578565b60405180910390f35b34801561033857600080fd5b50610341611c52565b60405161034e919061259a565b60405180910390f35b6000600160009054906101000a900460ff16905090565b60011515600260003373ffffffffffffffffffffffffffffffffffffffff1673ffffffffffffffffffffffffffffffffffffffff16815260200190815260200160002060009054906101000a900460ff16151514610401576040517f08c379a00000000000000000000000000000000000000000000000000000000081526004016103f8906125b5565b60405180910390fd5b60005b600680549050811015610596578173ffffffffffffffffffffffffffffffffffffffff166006828154811061043c5761043b612a9b565b5b906000526020600020906005020160000160009054906101000a900473ffffffffffffffffffffffffffffffffffffffff1673ffffffffffffffffffffffffffffffffffffffff161415610583576006818154811061049e5761049d612a9b565b5b906000526020600020906005020160076000820160009054906101000a900473ffffffffffffffffffffffffffffffffffffffff168160000160006101000a81548173ffffffffffffffffffffffffffffffffffffffff021916908373ffffffffffffffffffffffffffffffffffffffff160217905550600182018160010190805461052990612962565b610534929190611e2b565b50600282018160020190805461054990612962565b610554929190611e2b565b50600382018160030190805461056990612962565b610574929190611e2b565b50600482015481600401559050505b808061058e906129c5565b915050610404565b5050565b600360003373ffffffffffffffffffffffffffffffffffffffff1673ffffffffffffffffffffffffffffffffffffffff16815260200190815260200160002060000160009054906101000a900460ff16610629576040517f08c379a000000000000000000000000000000000000000000000000000000000815260040161062090612735565b60405180910390fd5b6001600281111561063d5761063c612a3d565b5b600160009054906101000a900460ff16600281111561065f5761065e612a3d565b5b1461069f576040517f08c379a0000000000000000000000000000000000000000000000000000000008152600401610696906126f5565b60405180910390fd5b3373ffffffffffffffffffffffffffffffffffffffff16600c60000160009054906101000a900473ffffffffffffffffffffffffffffffffffffffff1673ffffffffffffffffffffffffffffffffffffffff161415610733576040517f08c379a000000000000000000000000000000000000000000000000000000000815260040161072a90612615565b60405180910390fd5b600c60010154341161077a576040517f08c379a000000000000000000000000000000000000000000000000000000000815260040161077190612675565b60405180910390fd5b60076004015434116107c1576040517f08c379a00000000000000000000000000000000000000000000000000000000081526004016107b8906125f5565b60405180910390fd5b34600c6001018190555033600c60000160006101000a81548173ffffffffffffffffffffffffffffffffffffffff021916908373ffffffffffffffffffffffffffffffffffffffff16021790555034600460003373ffffffffffffffffffffffffffffffffffffffff1673ffffffffffffffffffffffffffffffffffffffff16815260200190815260200160002081905550565b600360003373ffffffffffffffffffffffffffffffffffffffff1673ffffffffffffffffffffffffffffffffffffffff16815260200190815260200160002060000160009054906101000a900460ff166108e4576040517f08c379a00000000000000000000000000000000000000000000000000000000081526004016108db90612735565b60405180910390fd5b600060028111156108f8576108f7612a3d565b5b600160009054906101000a900460ff16600281111561091a57610919612a3d565b5b1461095a576040517f08c379a000000000000000000000000000000000000000000000000000000000815260040161095190612635565b60405180910390fd5b60011515600360003373ffffffffffffffffffffffffffffffffffffffff1673ffffffffffffffffffffffffffffffffffffffff16815260200190815260200160002060000160009054906101000a900460ff161515146109f0576040517f08c379a00000000000000000000000000000000000000000000000000000000081526004016109e7906126d5565b60405180910390fd5b60001515600360003373ffffffffffffffffffffffffffffffffffffffff1673ffffffffffffffffffffffffffffffffffffffff16815260200190815260200160002060000160029054906101000a900460ff16151514610a86576040517f08c379a0000000000000000000000000000000000000000000000000000000008152600401610a7d906125d5565b60405180910390fd5b6001600360003373ffffffffffffffffffffffffffffffffffffffff1673ffffffffffffffffffffffffffffffffffffffff16815260200190815260200160002060000160026101000a81548160ff02191690831515021790555060066040518060a001604052803373ffffffffffffffffffffffffffffffffffffffff16815260200186815260200185815260200184815260200183815250908060018154018082558091505060019003906000526020600020906005020160009091909190915060008201518160000160006101000a81548173ffffffffffffffffffffffffffffffffffffffff021916908373ffffffffffffffffffffffffffffffffffffffff1602179055506020820151816001019080519060200190610bac929190611eb8565b506040820151816002019080519060200190610bc9929190611eb8565b506060820151816003019080519060200190610be6929190611eb8565b506080820151816004015550507f512035e7cb05dedf2293b41ef497811b216cdb367cd4436fa3817039006db6f633604051610c22919061255d565b60405180910390a150505050565b6000600360003373ffffffffffffffffffffffffffffffffffffffff1673ffffffffffffffffffffffffffffffffffffffff16815260200190815260200160002060000160009054906101000a900460ff16610cc1576040517f08c379a0000000000000000000000000000000000000000000000000000000008152600401610cb890612735565b60405180910390fd5b60006002811115610cd557610cd4612a3d565b5b600160009054906101000a900460ff166002811115610cf757610cf6612a3d565b5b1415610d38576040517f08c379a0000000000000000000000000000000000000000000000000000000008152600401610d2f906126b5565b60405180910390fd5b600460003373ffffffffffffffffffffffffffffffffffffffff1673ffffffffffffffffffffffffffffffffffffffff16815260200190815260200160002054905090565b610d85611f3e565b600360003373ffffffffffffffffffffffffffffffffffffffff1673ffffffffffffffffffffffffffffffffffffffff16815260200190815260200160002060000160009054906101000a900460ff16610e14576040517f08c379a0000000000000000000000000000000000000000000000000000000008152600401610e0b90612735565b60405180910390fd5b60076040518060a00160405290816000820160009054906101000a900473ffffffffffffffffffffffffffffffffffffffff1673ffffffffffffffffffffffffffffffffffffffff1673ffffffffffffffffffffffffffffffffffffffff168152602001600182018054610e8790612962565b80601f0160208091040260200160405190810160405280929190818152602001828054610eb390612962565b8015610f005780601f10610ed557610100808354040283529160200191610f00565b820191906000526020600020905b815481529060010190602001808311610ee357829003601f168201915b50505050508152602001600282018054610f1990612962565b80601f0160208091040260200160405190810160405280929190818152602001828054610f4590612962565b8015610f925780601f10610f6757610100808354040283529160200191610f92565b820191906000526020600020905b815481529060010190602001808311610f7557829003601f168201915b50505050508152602001600382018054610fab90612962565b80601f0160208091040260200160405190810160405280929190818152602001828054610fd790612962565b80156110245780601f10610ff957610100808354040283529160200191611024565b820191906000526020600020905b81548152906001019060200180831161100757829003601f168201915b50505050508152602001600482015481525050905090565b60011515600260003373ffffffffffffffffffffffffffffffffffffffff1673ffffffffffffffffffffffffffffffffffffffff16815260200190815260200160002060009054906101000a900460ff161515146110cf576040517f08c379a00000000000000000000000000000000000000000000000000000000081526004016110c6906125b5565b60405180910390fd5b6001600360008373ffffffffffffffffffffffffffffffffffffffff1673ffffffffffffffffffffffffffffffffffffffff16815260200190815260200160002060000160006101000a81548160ff0219169083151502179055507f8a446114d79541cd3cb7a8fa8b9a2783dea566927042e0fbbe75df0f835f66fc33604051611159919061255d565b60405180910390a150565b600060011515600260003373ffffffffffffffffffffffffffffffffffffffff1673ffffffffffffffffffffffffffffffffffffffff16815260200190815260200160002060009054906101000a900460ff161515146111f9576040517f08c379a00000000000000000000000000000000000000000000000000000000081526004016111f0906125b5565b60405180910390fd5b6000600281111561120d5761120c612a3d565b5b600160009054906101000a900460ff16600281111561122f5761122e612a3d565b5b1461126f576040517f08c379a000000000000000000000000000000000000000000000000000000000815260040161126690612715565b60405180910390fd5b60018060006101000a81548160ff0219169083600281111561129457611293612a3d565b5b0217905550600160009054906101000a900460ff16905090565b6000600360003373ffffffffffffffffffffffffffffffffffffffff1673ffffffffffffffffffffffffffffffffffffffff16815260200190815260200160002060000160009054906101000a900460ff1661133f576040517f08c379a000000000000000000000000000000000000000000000000000000000815260040161133690612735565b60405180910390fd5b6000600281111561135357611352612a3d565b5b600160009054906101000a900460ff16600281111561137557611374612a3d565b5b14156113b6576040517f08c379a00000000000000000000000000000000000000000000000000000000081526004016113ad906126b5565b60405180910390fd5b600c60010154905090565b600160009054906101000a900460ff1681565b6002808111156113e7576113e6612a3d565b5b600160009054906101000a900460ff16600281111561140957611408612a3d565b5b14611449576040517f08c379a000000000000000000000000000000000000000000000000000000000815260040161144090612655565b60405180910390fd5b6000600560003373ffffffffffffffffffffffffffffffffffffffff1673ffffffffffffffffffffffffffffffffffffffff168152602001908152602001600020549050600081141561149b57600080fd5b804710156114a857600080fd5b6000600560003373ffffffffffffffffffffffffffffffffffffffff1673ffffffffffffffffffffffffffffffffffffffff168152602001908152602001600020819055503373ffffffffffffffffffffffffffffffffffffffff166108fc829081150290604051600060405180830381858888f19350505050158015611533573d6000803e3d6000fd5b5050565b6001600260008373ffffffffffffffffffffffffffffffffffffffff1673ffffffffffffffffffffffffffffffffffffffff16815260200190815260200160002060006101000a81548160ff0219169083151502179055507fa6ba31c1adac651e51a12cb801ecc9e2b43d89fd6c30db7fc12c71f483d764bc816040516115be919061255d565b60405180910390a150565b6115d1611f83565b600360003373ffffffffffffffffffffffffffffffffffffffff1673ffffffffffffffffffffffffffffffffffffffff16815260200190815260200160002060000160009054906101000a900460ff16611660576040517f08c379a000000000000000000000000000000000000000000000000000000000815260040161165790612735565b60405180910390fd5b60028081111561167357611672612a3d565b5b600160009054906101000a900460ff16600281111561169557611694612a3d565b5b146116d5576040517f08c379a00000000000000000000000000000000000000000000000000000000081526004016116cc90612655565b60405180910390fd5b600c6040518060400160405290816000820160009054906101000a900473ffffffffffffffffffffffffffffffffffffffff1673ffffffffffffffffffffffffffffffffffffffff1673ffffffffffffffffffffffffffffffffffffffff168152602001600182015481525050905090565b600360003373ffffffffffffffffffffffffffffffffffffffff1673ffffffffffffffffffffffffffffffffffffffff16815260200190815260200160002060000160009054906101000a900460ff166117d6576040517f08c379a00000000000000000000000000000000000000000000000000000000081526004016117cd90612735565b60405180910390fd5b600c60010154600460003373ffffffffffffffffffffffffffffffffffffffff1673ffffffffffffffffffffffffffffffffffffffff168152602001908152602001600020541061185c576040517f08c379a000000000000000000000000000000000000000000000000000000000815260040161185390612695565b60405180910390fd5b6000600460003373ffffffffffffffffffffffffffffffffffffffff1673ffffffffffffffffffffffffffffffffffffffff16815260200190815260200160002054905060008114156118ae57600080fd5b804710156118bb57600080fd5b6000600460003373ffffffffffffffffffffffffffffffffffffffff1673ffffffffffffffffffffffffffffffffffffffff168152602001908152602001600020819055503373ffffffffffffffffffffffffffffffffffffffff166108fc829081150290604051600060405180830381858888f19350505050158015611946573d6000803e3d6000fd5b5050565b606060011515600260003373ffffffffffffffffffffffffffffffffffffffff1673ffffffffffffffffffffffffffffffffffffffff16815260200190815260200160002060009054906101000a900460ff161515146119df576040517f08c379a00000000000000000000000000000000000000000000000000000000081526004016119d6906125b5565b60405180910390fd5b6006805480602002602001604051908101604052809291908181526020016000905b82821015611c4957838290600052602060002090600502016040518060a00160405290816000820160009054906101000a900473ffffffffffffffffffffffffffffffffffffffff1673ffffffffffffffffffffffffffffffffffffffff1673ffffffffffffffffffffffffffffffffffffffff168152602001600182018054611a8a90612962565b80601f0160208091040260200160405190810160405280929190818152602001828054611ab690612962565b8015611b035780601f10611ad857610100808354040283529160200191611b03565b820191906000526020600020905b815481529060010190602001808311611ae657829003601f168201915b50505050508152602001600282018054611b1c90612962565b80601f0160208091040260200160405190810160405280929190818152602001828054611b4890612962565b8015611b955780601f10611b6a57610100808354040283529160200191611b95565b820191906000526020600020905b815481529060010190602001808311611b7857829003601f168201915b50505050508152602001600382018054611bae90612962565b80601f0160208091040260200160405190810160405280929190818152602001828054611bda90612962565b8015611c275780601f10611bfc57610100808354040283529160200191611c27565b820191906000526020600020905b815481529060010190602001808311611c0a57829003601f168201915b5050505050815260200160048201548152505081526020019060010190611a01565b50505050905090565b600060011515600260003373ffffffffffffffffffffffffffffffffffffffff1673ffffffffffffffffffffffffffffffffffffffff16815260200190815260200160002060009054906101000a900460ff16151514611ce7576040517f08c379a0000000000000000000000000000000000000000000000000000000008152600401611cde906125b5565b60405180910390fd5b60016002811115611cfb57611cfa612a3d565b5b600160009054906101000a900460ff166002811115611d1d57611d1c612a3d565b5b14611d5d576040517f08c379a0000000000000000000000000000000000000000000000000000000008152600401611d54906126f5565b60405180910390fd5b6002600160006101000a81548160ff02191690836002811115611d8357611d82612a3d565b5b0217905550611dbc600760000160009054906101000a900473ffffffffffffffffffffffffffffffffffffffff16600c60010154611dd1565b600160009054906101000a900460ff16905090565b80600560008473ffffffffffffffffffffffffffffffffffffffff1673ffffffffffffffffffffffffffffffffffffffff1681526020019081526020016000206000828254611e209190612869565b925050819055505050565b828054611e3790612962565b90600052602060002090601f016020900481019282611e595760008555611ea7565b82601f10611e6a5780548555611ea7565b82800160010185558215611ea757600052602060002091601f016020900482015b82811115611ea6578254825591600101919060010190611e8b565b5b509050611eb49190611fb3565b5090565b828054611ec490612962565b90600052602060002090601f016020900481019282611ee65760008555611f2d565b82601f10611eff57805160ff1916838001178555611f2d565b82800160010185558215611f2d579182015b82811115611f2c578251825591602001919060010190611f11565b5b509050611f3a9190611fb3565b5090565b6040518060a00160405280600073ffffffffffffffffffffffffffffffffffffffff168152602001606081526020016060815260200160608152602001600081525090565b6040518060400160405280600073ffffffffffffffffffffffffffffffffffffffff168152602001600081525090565b5b80821115611fcc576000816000905550600101611fb4565b5090565b6000611fe3611fde846127d2565b6127ad565b905082815260208101848484011115611fff57611ffe612afe565b5b61200a848285612920565b509392505050565b60008135905061202181612f0f565b92915050565b600082601f83011261203c5761203b612af9565b5b813561204c848260208601611fd0565b91505092915050565b60008135905061206481612f26565b92915050565b6000602082840312156120805761207f612b08565b5b600061208e84828501612012565b91505092915050565b600080600080608085870312156120b1576120b0612b08565b5b600085013567ffffffffffffffff8111156120cf576120ce612b03565b5b6120db87828801612027565b945050602085013567ffffffffffffffff8111156120fc576120fb612b03565b5b61210887828801612027565b935050604085013567ffffffffffffffff81111561212957612128612b03565b5b61213587828801612027565b925050606061214687828801612055565b91505092959194509250565b600061215e8383612437565b905092915050565b61216f816128bf565b82525050565b61217e816128bf565b82525050565b600061218f82612813565b6121998185612836565b9350836020820285016121ab85612803565b8060005b858110156121e757848403895281516121c88582612152565b94506121d383612829565b925060208a019950506001810190506121af565b50829750879550505050505092915050565b6122028161290e565b82525050565b60006122138261281e565b61221d8185612847565b935061222d81856020860161292f565b61223681612b0d565b840191505092915050565b600061224e603f83612858565b915061225982612b1e565b604082019050919050565b6000612271602383612858565b915061227c82612b6d565b604082019050919050565b6000612294602b83612858565b915061229f82612bbc565b604082019050919050565b60006122b7602683612858565b91506122c282612c0b565b604082019050919050565b60006122da603a83612858565b91506122e582612c5a565b604082019050919050565b60006122fd602b83612858565b915061230882612ca9565b604082019050919050565b6000612320603283612858565b915061232b82612cf8565b604082019050919050565b6000612343602c83612858565b915061234e82612d47565b604082019050919050565b6000612366602883612858565b915061237182612d96565b604082019050919050565b6000612389603283612858565b915061239482612de5565b604082019050919050565b60006123ac603383612858565b91506123b782612e34565b604082019050919050565b60006123cf602983612858565b91506123da82612e83565b604082019050919050565b60006123f2601c83612858565b91506123fd82612ed2565b602082019050919050565b60408201600082015161241e6000850182612166565b506020820151612431602085018261253f565b50505050565b600060a08301600083015161244f6000860182612166565b50602083015184820360208601526124678282612208565b915050604083015184820360408601526124818282612208565b9150506060830151848203606086015261249b8282612208565b91505060808301516124b0608086018261253f565b508091505092915050565b600060a0830160008301516124d36000860182612166565b50602083015184820360208601526124eb8282612208565b915050604083015184820360408601526125058282612208565b9150506060830151848203606086015261251f8282612208565b9150506080830151612534608086018261253f565b508091505092915050565b61254881612904565b82525050565b61255781612904565b82525050565b60006020820190506125726000830184612175565b92915050565b600060208201905081810360008301526125928184612184565b905092915050565b60006020820190506125af60008301846121f9565b92915050565b600060208201905081810360008301526125ce81612241565b9050919050565b600060208201905081810360008301526125ee81612264565b9050919050565b6000602082019050818103600083015261260e81612287565b9050919050565b6000602082019050818103600083015261262e816122aa565b9050919050565b6000602082019050818103600083015261264e816122cd565b9050919050565b6000602082019050818103600083015261266e816122f0565b9050919050565b6000602082019050818103600083015261268e81612313565b9050919050565b600060208201905081810360008301526126ae81612336565b9050919050565b600060208201905081810360008301526126ce81612359565b9050919050565b600060208201905081810360008301526126ee8161237c565b9050919050565b6000602082019050818103600083015261270e8161239f565b9050919050565b6000602082019050818103600083015261272e816123c2565b9050919050565b6000602082019050818103600083015261274e816123e5565b9050919050565b600060408201905061276a6000830184612408565b92915050565b6000602082019050818103600083015261278a81846124bb565b905092915050565b60006020820190506127a7600083018461254e565b92915050565b60006127b76127c8565b90506127c38282612994565b919050565b6000604051905090565b600067ffffffffffffffff8211156127ed576127ec612aca565b5b6127f682612b0d565b9050602081019050919050565b6000819050602082019050919050565b600081519050919050565b600081519050919050565b6000602082019050919050565b600082825260208201905092915050565b600082825260208201905092915050565b600082825260208201905092915050565b600061287482612904565b915061287f83612904565b9250827fffffffffffffffffffffffffffffffffffffffffffffffffffffffffffffffff038211156128b4576128b3612a0e565b5b828201905092915050565b60006128ca826128e4565b9050919050565b60008190506128df82612efb565b919050565b600073ffffffffffffffffffffffffffffffffffffffff82169050919050565b6000819050919050565b6000612919826128d1565b9050919050565b82818337600083830152505050565b60005b8381101561294d578082015181840152602081019050612932565b8381111561295c576000848401525b50505050565b6000600282049050600182168061297a57607f821691505b6020821081141561298e5761298d612a6c565b5b50919050565b61299d82612b0d565b810181811067ffffffffffffffff821117156129bc576129bb612aca565b5b80604052505050565b60006129d082612904565b91507fffffffffffffffffffffffffffffffffffffffffffffffffffffffffffffffff821415612a0357612a02612a0e565b5b600182019050919050565b7f4e487b7100000000000000000000000000000000000000000000000000000000600052601160045260246000fd5b7f4e487b7100000000000000000000000000000000000000000000000000000000600052602160045260246000fd5b7f4e487b7100000000000000000000000000000000000000000000000000000000600052602260045260246000fd5b7f4e487b7100000000000000000000000000000000000000000000000000000000600052603260045260246000fd5b7f4e487b7100000000000000000000000000000000000000000000000000000000600052604160045260246000fd5b600080fd5b600080fd5b600080fd5b600080fd5b6000601f19601f8301169050919050565b7f566f757320646576657a20c3aa7472652061646d696e6973747261746575722060008201527f706f757220656e72656769737472657220756e207574696c6973617465757200602082015250565b7f766f7573206176657a2064c3a96ac3a02070726f706f73c3a920756e6520766560008201527f6e74650000000000000000000000000000000000000000000000000000000000602082015250565b7f436574746520736f6d6d652065737420696e66c3a9726965757265206175207060008201527f72697820696e697469616c000000000000000000000000000000000000000000602082015250565b7f566f7573206176657a2064c3a96ac3a0206c61206d65696c6c6575726520656e60008201527f6368c3a872650000000000000000000000000000000000000000000000000000602082015250565b7f4c657320656e6368c3a8726573206f6e742064c3a96ac3a02064c3a96d61727260008201527fc3a9206f7520656c6c657320736f6e74207465726d696ec3a965000000000000602082015250565b7f4c657320656e6368c3a8726573206e6520736f6e742070617320656e636f726560008201527f207465726d696ec3a96573000000000000000000000000000000000000000000602082015250565b7f436574746520736f6d6d652065737420696e66c3a972696575726520c3a0206c60008201527f27656e6368c3a872652061637475656c6c650000000000000000000000000000602082015250565b7f766f7573206761676e657a206c27656e6368c3a8726520696d706f737369626c60008201527f6520646520726574697265720000000000000000000000000000000000000000602082015250565b7f4c657320656e6368c3a8726573206e276f6e742070617320656e636f7265206460008201527fc3a96d617272c3a9000000000000000000000000000000000000000000000000602082015250565b7f766f757320646576657a206574726520656e72656769737472c3a920656e207460008201527f616e74207175277574696c697361746575720000000000000000000000000000602082015250565b7f4c657320656e6368c3a8726573206e276f6e74207061732064c3a96d617272c360008201527fa9206f7520736f6e74207465726d696ec3a96500000000000000000000000000602082015250565b7f4c657320656e6368c3a872657320736f6e7420656e20636f757273206f75207460008201527f65726d696ec3a9652e0000000000000000000000000000000000000000000000602082015250565b7f566f7573206e27c3aa7465732070617320656e72656769737472c3a900000000600082015250565b60038110612f0c57612f0b612a3d565b5b50565b612f18816128bf565b8114612f2357600080fd5b50565b612f2f81612904565b8114612f3a57600080fd5b5056fea264697066735822122032b3aff4b6b7e8ccbd5da6e532452de812b9f4af5c929edef8aabbb401869b0064736f6c63430008070033",
  "immutableReferences": {},
  "source": "// SPDX-License-Identifier: GPL-3.0\npragma solidity 0.8.7;\nimport \"../node_modules/Counters.sol\";\nimport \"../node_modules/Ownable.sol\";\n\ncontract Auction {\n    \n    using Counters for Counters.Counter;\n    Counters.Counter private saleId;\n\n    enum State { AwaitingAuctionsStart, OngoingAuctions, AuctionsEnded }\n    State public CurrentState = State.AwaitingAuctionsStart;\n\n    struct Sale{\n        address sellerAdress;\n        string name;\n        string description;\n        string image;\n        uint price;\n    }\n    \n    struct Bider{\n        bool isRegistered;\n        bool ongoingBid;\n        bool hasProposedSale;\n    }\n\n    struct AuctionWinner {\n        address topBidder;\n        uint topBid;\n    }\n    \n    mapping( address => bool) adminList;\n    mapping( address => Bider) bidderWhiteList;\n    mapping( address => uint) bidHistory;\n    mapping(address => uint) credits;\n    \n    Sale[] sales;\n    Sale registeredSale;\n\n    AuctionWinner winner;\n\n    event newAdmin(address admin);\n    event newBidder(address bidder);\n    event newSale(address seller);\n    event newBid(uint price);\n    event newSender(address sender);\n\n    /**\n     * N'autorise que les administrateurs\n     */\n    modifier onlyAdmin () {\n        require(adminList[msg.sender] == true, unicode\"Vous devez tre administrateur pour enregistrer un utilisateur\");\n        _;\n    }\n    /**\n     * N'autorise que les enchrisseurs\n     */\n    modifier onlyBidder () {\n        require(bidderWhiteList[msg.sender].isRegistered, unicode\"Vous n'tes pas enregistr\");\n        _;\n    }\n    /**\n     * N'autorise que le vendeur\n     */\n    modifier onlySeller () {\n        require(msg.sender == registeredSale.sellerAdress, unicode\"Vous n'tes pas le vendeur\");\n        _;\n    }\n    \n    function registerAdmin(address _user) public {\n        adminList[_user] = true;\n        \n        emit newAdmin(_user);\n    }\n\n    function registerBidder(address _user) public onlyAdmin{\n        bidderWhiteList[_user].isRegistered = true;\n        \n        emit newBidder(msg.sender);\n    }\n    \n    function startAuction() public onlyAdmin returns (State) {\n        require(CurrentState == State.AwaitingAuctionsStart, unicode\"Les enchres sont en cours ou termine.\");\n        \n        CurrentState = State.OngoingAuctions;\n        return CurrentState;\n    }\n    \n    function endAuction() public onlyAdmin returns (State) {\n        require(CurrentState == State.OngoingAuctions, unicode\"Les enchres n'ont pas dmarr ou sont termine\");\n        CurrentState = State.AuctionsEnded;\n\n        allowForPull(registeredSale.sellerAdress, winner.topBid);\n\n        return CurrentState;\n    }\n\n    function allowForPull(address _receiver, uint _amount) private {\n        credits[_receiver] += _amount;\n    }\n\n    function sellerWithdrawCredits() public {\n        require(CurrentState == State.AuctionsEnded, unicode\"Les enchres ne sont pas encore termines\");\n        uint amount = credits[msg.sender];\n\n        require(amount != 0);\n        require(address(this).balance >= amount);\n\n        credits[msg.sender] = 0;\n\n        payable(msg.sender).transfer(amount);\n    }\n\n    function buyerWithdrawCredits() public onlyBidder {\n        require(bidHistory[msg.sender] < winner.topBid, unicode\"vous gagnez l'enchre impossible de retirer\");\n\n        uint amount = bidHistory[msg.sender];\n\n        require(amount != 0);\n        require(address(this).balance >= amount);\n\n        bidHistory[msg.sender] = 0;\n\n        payable(msg.sender).transfer(amount);\n    }\n    \n    function proposeSale(string memory _name, string memory _description, string memory _image, uint _amount) public onlyBidder {\n        require(CurrentState == State.AwaitingAuctionsStart, unicode\"Les enchres ont dj dmarr ou elles sont termine\");\n        require(bidderWhiteList[msg.sender].isRegistered == true, unicode\"vous devez etre enregistr en tant qu'utilisateur\");\n        require(bidderWhiteList[msg.sender].hasProposedSale == false, unicode\"vous avez dj propos une vente\");\n\n        bidderWhiteList[msg.sender].hasProposedSale = true;\n\n        sales.push(Sale(msg.sender, _name, _description, _image, _amount));\n        \n        emit newSale(msg.sender);\n    }\n    \n    function viewPendingSales() public onlyAdmin view returns(Sale[] memory){\n        return sales;\n    }\n\n    function viewRegisteredSale() public onlyBidder view returns(Sale memory){\n        return registeredSale;\n    }\n\n    \n\n    function acceptSale(address _sellerAdress) public onlyAdmin{\n        for(uint i=0; i<sales.length; i++){\n            if(sales[i].sellerAdress == _sellerAdress){\n                registeredSale = sales[i];\n            }\n        }\n    }\n\n    function bid() public onlyBidder payable {\n        require(CurrentState == State.OngoingAuctions, unicode\"Les enchres n'ont pas dmarr ou sont termine\");\n        require(winner.topBidder != msg.sender, unicode\"Vous avez dj la meilleure enchre\");\n        require(msg.value > winner.topBid, unicode\"Cette somme est infrieure  l'enchre actuelle\");\n        require(msg.value > registeredSale.price, unicode\"Cette somme est infrieure au prix initial\");\n\n        winner.topBid = msg.value;\n        winner.topBidder = msg.sender;\n\n        bidHistory[msg.sender] = msg.value;\n    }\n\n    function viewYourBid() public onlyBidder view returns(uint){\n        require(CurrentState != State.AwaitingAuctionsStart, unicode\"Les enchres n'ont pas encore dmarr\");\n        return bidHistory[msg.sender];\n    }\n\n    function viewBestBid() public onlyBidder view returns(uint){\n        require(CurrentState != State.AwaitingAuctionsStart, unicode\"Les enchres n'ont pas encore dmarr\");\n        return winner.topBid;\n    }\n\n    function viewResults() public onlyBidder view returns(AuctionWinner memory){\n        require(CurrentState == State.AuctionsEnded, unicode\"Les enchres ne sont pas encore termines\");\n        return winner;\n    }\n\n    function showCurrentState() public view returns(State){\n        return CurrentState;\n    }\n\n}",
  "sourcePath": "/home/alex/auctionbox/contracts/Auction.sol",
  "compiler": {
    "name": "solc",
    "version": "0.8.7+commit.e28d00a7.Emscripten.clang"
  },
  "schemaVersion": "3.4.3",
  "updatedAt": "2021-10-20T13:56:02.035Z",
  "networkType": "ethereum",
  "devdoc": {
    "kind": "dev",
    "methods": {},
    "version": 1
  },
  "userdoc": {
    "kind": "user",
    "methods": {},
    "version": 1
  }
}